{
  "_format": "hh-sol-artifact-1",
  "contractName": "Escrow",
  "sourceName": "contracts/Escrow.sol",
  "abi": [
    {
      "inputs": [
        {
          "internalType": "address",
          "name": "_seller",
          "type": "address"
        }
      ],
      "stateMutability": "nonpayable",
      "type": "constructor"
    },
    {
      "inputs": [],
      "name": "amount",
      "outputs": [
        {
          "internalType": "uint256",
          "name": "",
          "type": "uint256"
        }
      ],
      "stateMutability": "view",
      "type": "function"
    },
    {
      "inputs": [],
      "name": "buyer",
      "outputs": [
        {
          "internalType": "address",
          "name": "",
          "type": "address"
        }
      ],
      "stateMutability": "view",
      "type": "function"
    },
    {
      "inputs": [],
      "name": "fund",
      "outputs": [],
      "stateMutability": "payable",
      "type": "function"
    },
    {
      "inputs": [],
      "name": "isFunded",
      "outputs": [
        {
          "internalType": "bool",
          "name": "",
          "type": "bool"
        }
      ],
      "stateMutability": "view",
      "type": "function"
    },
    {
      "inputs": [],
      "name": "isReleased",
      "outputs": [
        {
          "internalType": "bool",
          "name": "",
          "type": "bool"
        }
      ],
      "stateMutability": "view",
      "type": "function"
    },
    {
      "inputs": [],
      "name": "refund",
      "outputs": [],
      "stateMutability": "nonpayable",
      "type": "function"
    },
    {
      "inputs": [],
      "name": "release",
      "outputs": [],
      "stateMutability": "nonpayable",
      "type": "function"
    },
    {
      "inputs": [],
      "name": "seller",
      "outputs": [
        {
          "internalType": "address",
          "name": "",
          "type": "address"
        }
      ],
      "stateMutability": "view",
      "type": "function"
    }
  ],
  "bytecode": "0x608060405234801561001057600080fd5b50604051610c0d380380610c0d8339818101604052810190610032919061011c565b336000806101000a81548173ffffffffffffffffffffffffffffffffffffffff021916908373ffffffffffffffffffffffffffffffffffffffff16021790555080600160006101000a81548173ffffffffffffffffffffffffffffffffffffffff021916908373ffffffffffffffffffffffffffffffffffffffff16021790555050610149565b600080fd5b600073ffffffffffffffffffffffffffffffffffffffff82169050919050565b60006100e9826100be565b9050919050565b6100f9816100de565b811461010457600080fd5b50565b600081519050610116816100f0565b92915050565b600060208284031215610132576101316100b9565b5b600061014084828501610107565b91505092915050565b610ab5806101586000396000f3fe60806040526004361061007b5760003560e01c806386d1a69f1161004e57806386d1a69f14610118578063aa8c217c1461012f578063b60d42881461015a578063fa2a8997146101645761007b565b806308551a5314610080578063590e1ae3146100ab5780637150d8ae146100c25780637c654303146100ed575b600080fd5b34801561008c57600080fd5b5061009561018f565b6040516100a291906106f5565b60405180910390f35b3480156100b757600080fd5b506100c06101b5565b005b3480156100ce57600080fd5b506100d761036a565b6040516100e491906106f5565b60405180910390f35b3480156100f957600080fd5b5061010261038e565b60405161010f919061072b565b60405180910390f35b34801561012457600080fd5b5061012d6103a1565b005b34801561013b57600080fd5b50610144610556565b604051610151919061075f565b60405180910390f35b61016261055c565b005b34801561017057600080fd5b506101796106a1565b604051610186919061072b565b60405180910390f35b600160009054906101000a900473ffffffffffffffffffffffffffffffffffffffff1681565b600160009054906101000a900473ffffffffffffffffffffffffffffffffffffffff1673ffffffffffffffffffffffffffffffffffffffff163373ffffffffffffffffffffffffffffffffffffffff1614610245576040517f08c379a000000000000000000000000000000000000000000000000000000000815260040161023c906107d7565b60405180910390fd5b600360009054906101000a900460ff16610294576040517f08c379a000000000000000000000000000000000000000000000000000000000815260040161028b90610843565b60405180910390fd5b600360019054906101000a900460ff16156102e4576040517f08c379a00000000000000000000000000000000000000000000000000000000081526004016102db906108af565b60405180910390fd5b60008054906101000a900473ffffffffffffffffffffffffffffffffffffffff1673ffffffffffffffffffffffffffffffffffffffff166108fc6002549081150290604051600060405180830381858888f1935050505015801561034c573d6000803e3d6000fd5b506000600360006101000a81548160ff021916908315150217905550565b60008054906101000a900473ffffffffffffffffffffffffffffffffffffffff1681565b600360009054906101000a900460ff1681565b60008054906101000a900473ffffffffffffffffffffffffffffffffffffffff1673ffffffffffffffffffffffffffffffffffffffff163373ffffffffffffffffffffffffffffffffffffffff161461042f576040517f08c379a00000000000000000000000000000000000000000000000000000000081526004016104269061091b565b60405180910390fd5b600360009054906101000a900460ff1661047e576040517f08c379a000000000000000000000000000000000000000000000000000000000815260040161047590610843565b60405180910390fd5b600360019054906101000a900460ff16156104ce576040517f08c379a00000000000000000000000000000000000000000000000000000000081526004016104c5906108af565b60405180910390fd5b6001600360016101000a81548160ff021916908315150217905550600160009054906101000a900473ffffffffffffffffffffffffffffffffffffffff1673ffffffffffffffffffffffffffffffffffffffff166108fc6002549081150290604051600060405180830381858888f19350505050158015610553573d6000803e3d6000fd5b50565b60025481565b60008054906101000a900473ffffffffffffffffffffffffffffffffffffffff1673ffffffffffffffffffffffffffffffffffffffff163373ffffffffffffffffffffffffffffffffffffffff16146105ea576040517f08c379a00000000000000000000000000000000000000000000000000000000081526004016105e190610987565b60405180910390fd5b600360009054906101000a900460ff161561063a576040517f08c379a0000000000000000000000000000000000000000000000000000000008152600401610631906109f3565b60405180910390fd5b6000341161067d576040517f08c379a000000000000000000000000000000000000000000000000000000000815260040161067490610a5f565b60405180910390fd5b346002819055506001600360006101000a81548160ff021916908315150217905550565b600360019054906101000a900460ff1681565b600073ffffffffffffffffffffffffffffffffffffffff82169050919050565b60006106df826106b4565b9050919050565b6106ef816106d4565b82525050565b600060208201905061070a60008301846106e6565b92915050565b60008115159050919050565b61072581610710565b82525050565b6000602082019050610740600083018461071c565b92915050565b6000819050919050565b61075981610746565b82525050565b60006020820190506107746000830184610750565b92915050565b600082825260208201905092915050565b7f4f6e6c792073656c6c65722063616e20726566756e6400000000000000000000600082015250565b60006107c160168361077a565b91506107cc8261078b565b602082019050919050565b600060208201905081810360008301526107f0816107b4565b9050919050565b7f46756e6473206e6f74206465706f736974656400000000000000000000000000600082015250565b600061082d60138361077a565b9150610838826107f7565b602082019050919050565b6000602082019050818103600083015261085c81610820565b9050919050565b7f416c72656164792072656c656173656400000000000000000000000000000000600082015250565b600061089960108361077a565b91506108a482610863565b602082019050919050565b600060208201905081810360008301526108c88161088c565b9050919050565b7f4f6e6c792062757965722063616e2072656c6561736500000000000000000000600082015250565b600061090560168361077a565b9150610910826108cf565b602082019050919050565b60006020820190508181036000830152610934816108f8565b9050919050565b7f4f6e6c792062757965722063616e2066756e6400000000000000000000000000600082015250565b600061097160138361077a565b915061097c8261093b565b602082019050919050565b600060208201905081810360008301526109a081610964565b9050919050565b7f416c72656164792066756e646564000000000000000000000000000000000000600082015250565b60006109dd600e8361077a565b91506109e8826109a7565b602082019050919050565b60006020820190508181036000830152610a0c816109d0565b9050919050565b7f416d6f756e74206d7573742062652067726561746572207468616e2030000000600082015250565b6000610a49601d8361077a565b9150610a5482610a13565b602082019050919050565b60006020820190508181036000830152610a7881610a3c565b905091905056fea26469706673582212208c044498189b8ccba5979ad62c35be145fda23f04891ac7ac0ef3f75ae827a2964736f6c634300081c0033",
  "linkReferences": {},
  "deployedLinkReferences": {}
}